:100000000C948E000C94BF000C94BF000C94BF00A5
:100010000C94BF000C94BF000C94BF000C94BF0064
:100020000C94BF000C94BF000C94BF000C94BF0054
:100030000C94BF000C94BF000C94BF000C94BF0044
:100040000C94BF000C94BF000C94BF000C94BF0034
:100050000C94BF000C94BF000C94BF000C94B00132
:100060000C94BF000C9462030C9452040C94BF00D7
:100070000C94BF000C94BF000C94BF000C94BF0004
:100080000C94BF000C94BF000C94BF000C94BF00F4
:100090000C9496030C9491040C94BF000C94BF0034
:1000A0000C94BF000C94BF000C94BF000C94BF00D4
:1000B0000C94BF000C94BF000C94BF000C94BF00C4
:1000C0000C94BF000C94BF000C94BF000C94CA03A6
:1000D0000C94D0040C94BF000C94FE030C940F05F8
:1000E0000C94BF000C9431040C9412070C94000380
:1000F0000C940B030C94CF050C94B1020C94E30AFE
:100100000C9467090C94A4010C940E0A0C94DE0262
:100110000C94C3020C945709A401CF0511241FBEEF
:10012000CFEFD1E2DEBFCDBF00E00CBF12E0A0E018
:10013000B2E0E6E8F7E100E00BBF02C007900D92E5
:10014000A23DB107D9F715E0A2EDB2E001C01D92C2
:10015000A93DB107E1F711E0CCE1D1E000E006C034
:1001600022970109FE010BBF0E94BD0BC831D107C8
:1001700080E00807A9F70E9405070C948B0B0C94EC
:100180000000CF92DF92EF92FF9240E052EC61E0EC
:1001900070E087E993E00E944E056CE072E087E929
:1001A00093E00E946D0782ED92E00E94040882EDC8
:1001B00092E00E941D086B017C01611571058105AB
:1001C000910539F463E172E087E993E00E945007FA
:1001D000FFCF6BE272E087E993E00E9450074F2D5A
:1001E00055276627772720E130E087E993E00E94D2
:1001F000EC076AE372E087E993E00E9450074E2D16
:1002000050E060E070E02AE030E087E993E00E948F
:10021000D8076EE287E993E00E9452074D2D50E027
:1002200060E070E02AE030E087E993E00E94EC07AC
:100230006FEF82ED92E00E94B00882ED92E00E94A2
:10024000730869E472E087E993E0FF90EF90DF9034
:10025000CF900C946D07EF92FF920F931F93CF9363
:10026000DF93CDB7DEB728970FB6F894DEBF0FBE89
:10027000CDBFCE0101967C0187E0F70111928A95EE
:10028000E9F708EE13E09E01285F3F4FA70160E009
:1002900082ED92E00E94F008882309F442C067E6EC
:1002A00072E087E993E00E946D0765E772E087E9F5
:1002B00093E00E9450074AE050E0688587E993E0A8
:1002C0000E94E50762E872E087E993E00E946D070B
:1002D00069E872E087E993E00E94500710E08885A2
:1002E000181790F465E972E087E993E00E945007DF
:1002F000F701E10FF11D40E150E0608187E993E0F3
:100300000E94E5071F5FEBCF68E472E087E993E0A6
:100310000E946D0768EE73E080E090E00E94290281
:1003200006C069E972E087E993E00E946D072896AC
:100330000FB6F894DEBF0FBECDBFDF91CF911F91F6
:100340000F91FF90EF90089565E773E083E293E0EB
:100350000E94A80963E273E082ED92E00C94FE072C
:100360001F920F920FB60F9211242F933F938F93EA
:100370009F93AF93BF938091290390912A03A091FB
:100380002B03B0912C033091280323E0230F2D374A
:1003900020F40196A11DB11D05C026E8230F029689
:1003A000A11DB11D209328038093290390932A0354
:1003B000A0932B03B0932C0380912D0390912E03D7
:1003C000A0912F03B09130030196A11DB11D809320
:1003D0002D0390932E03A0932F03B0933003BF916E
:1003E000AF919F918F913F912F910F900FBE0F90E2
:1003F0001F9018952FB7F8946091290370912A03E4
:1004000080912B0390912C032FBF08953FB7F89450
:1004100080912D0390912E03A0912F03B091300372
:1004200026B5A89B05C02F3F19F00196A11DB11D4F
:100430003FBF6627782F892F9A2F620F711D811D6C
:10044000911D42E0660F771F881F991F4A95D1F7CB
:100450000895CF92DF92EF92FF92CF93DF936B01DB
:100460007C010E940602EB01C114D104E104F104F5
:1004700079F00E9406026C1B7D0B683E7340A0F36E
:1004800081E0C81AD108E108F108C851DC4FECCF6F
:10049000DF91CF91FF90EF90DF90CF900895789407
:1004A00084B5826084BD84B5816084BD85B5826079
:1004B00085BD85B5816085BDEEE6F0E08081816017
:1004C0008083E1E8F0E01082808182608083808117
:1004D00081608083E0E8F0E0808181608083E1EBEF
:1004E000F0E0808184608083E0EBF0E080818160D7
:1004F0008083E1E9F0E08081826080838081816097
:100500008083E0E9F0E0808181608083E1EAF0E0CF
:10051000808182608083808181608083E0EAF0E076
:10052000808181608083E1E2F1E08081826080836C
:10053000808181608083E0E2F1E08081816080835E
:10054000EAE7F0E08081846080838081826080833C
:100550008081816080838081806880831092C10067
:100560000895FC0124853585F901E05CFF4F808109
:100570009181F901EE5BFF4F20813181821B930B4A
:100580008F7399270895FC0184859585FC01E05CB3
:10059000FF4F40815181FC01EE5BFF4F2081318193
:1005A0004217530741F00190F081E02DE80FF91F49
:1005B000808190E008958FEF9FEF0895FC0184857E
:1005C0009585FC01E05CFF4F40815181FC01EE5BB1
:1005D000FF4F208131814217530779F0A081B1810B
:1005E000A80FB91F8C91208131812F5F3F4F2F734E
:1005F00033273183208390E008958FEF9FEF089594
:10060000FC0181A1882329F0A489B5898C9186FFFA
:10061000FBCF11A20895CF93DF93FC012685378588
:10062000D901A05CBF4F8D919C91119701968F735A
:100630009927E901CE5BDF4F4881598184179507DF
:10064000D9F30D90BC91A02DA20FB31F6C93A6857A
:10065000B785A05CBF4F11969C938E93A689B789EE
:100660002C9181E090E0078C02C0880F991F0A94BA
:10067000E2F7282B2C9381E081A30488F589E02DF3
:1006800080818064808381E090E0DF91CF91089544
:10069000FB01E05CFF4F208131812F5F3F4F2F73C3
:1006A0003327DB01AE5BBF4F4D915C9124173507BB
:1006B00039F0A081B181A60FB71F8C9331832083BD
:1006C000089508951F920F920FB60F9211240BB642
:1006D0000F922F933F934F935F936F937F938F93DB
:1006E0009F93AF93BF93EF93FF938091C00082FDE0
:1006F00007C08091C60065E975E00E94480302C00A
:100700008091C600FF91EF91BF91AF919F918F9122
:100710007F916F915F914F913F912F910F900BBE01
:100720000F900FBE0F901F90189508951F920F9273
:100730000FB60F9211240BB60F922F933F934F9346
:100740005F936F937F938F939F93AF93BF93EF9339
:10075000FF938091C80082FD07C08091CE006DE0BC
:1007600075E00E94480302C08091CE00FF91EF9196
:10077000BF91AF919F918F917F916F915F914F91B9
:100780003F912F910F900BBE0F900FBE0F901F90B7
:10079000189508951F920F920FB60F9211240BB661
:1007A0000F922F933F934F935F936F937F938F930A
:1007B0009F93AF93BF93EF93FF938091D00082FDFF
:1007C00007C08091D60065E874E00E94480302C02B
:1007D0008091D600FF91EF91BF91AF919F918F9142
:1007E0007F916F915F914F913F912F910F900BBE31
:1007F0000F900FBE0F901F90189508951F920F92A3
:100800000FB60F9211240BB60F922F933F934F9375
:100810005F936F937F938F939F93AF93BF93EF9368
:10082000FF938091300182FD07C0809136016DEF0A
:1008300073E00E94480302C080913601FF91EF915E
:10084000BF91AF919F918F917F916F915F914F91E8
:100850003F912F910F900BBE0F900FBE0F901F90E6
:10086000189587E993E00E94B102892B11F00E944C
:10087000610385E793E00E94B102892B11F00E9489
:10088000950383E593E00E94B102892B11F00E9449
:10089000C90381E393E00E94B102892B11F00C940B
:1008A000FD0308951F920F920FB60F9211240BB6FD
:1008B0000F922F933F938F939F93EF93FF932091EA
:1008C0009105309192058091930590919405281798
:1008D000390731F48091C1008F7D8093C10014C02D
:1008E000E0919305F0919405EF5AFA4F20818091A1
:1008F00093059091940501968F7399279093940591
:10090000809393052093C600FF91EF919F918F9163
:100910003F912F910F900BBE0F900FBE0F901F9025
:1009200018951F920F920FB60F9211240BB60F92CB
:100930002F933F938F939F93EF93FF9320910905FC
:1009400030910A0580910B0590910C052817390705
:1009500031F48091C9008F7D8093C90014C0E0916B
:100960000B05F0910C05E753FB4F208180910B059F
:1009700090910C0501968F73992790930C058093A5
:100980000B052093CE00FF91EF919F918F913F91A6
:100990002F910F900BBE0F900FBE0F901F901895C8
:1009A0001F920F920FB60F9211240BB60F922F9336
:1009B0003F938F939F93EF93FF9320918104309106
:1009C000820480918304909184042817390731F4BC
:1009D0008091D1008F7D8093D10014C0E091830479
:1009E000F0918404EF5BFB4F208180918304909110
:1009F000840401968F7399279093840480938304D1
:100A00002093D600FF91EF919F918F913F912F916D
:100A10000F900BBE0F900FBE0F901F9018951F9256
:100A20000F920FB60F9211240BB60F922F933F9394
:100A30008F939F93EF93FF932091F9033091FA03E3
:100A40008091FB039091FC032817390731F48091C2
:100A500031018F7D8093310114C0E091FB03F0914F
:100A6000FC03E754FC4F20818091FB039091FC0331
:100A700001968F7399279093FC038093FB03209337
:100A80003601FF91EF919F918F913F912F910F90A0
:100A90000BBE0F900FBE0F901F901895CF92DF9254
:100AA000EF92FF92CF93DF93EC016A017B01411536
:100AB00081EE580761057105F9F0EC89FD8981E047
:100AC00090E008A002C0880F991F0A94E2F7808383
:100AD00060E079E08DE390E0A70196010E949B0B16
:100AE0002150310941095109569547953795279568
:100AF000211580E1380798F0EC89FD89108260E8C3
:100B000074E88EE190E0A70196010E949B0B2150B2
:100B10003109410951095695479537952795E88937
:100B2000F9893083EA89FB89208319A2EE89FF893C
:100B3000408181E090E09C010C8C02C0220F331FA9
:100B40000A94E2F7422B4083EE89FF8940819C01A1
:100B50000D8C02C0220F331F0A94E2F7422B408310
:100B6000EE89FF8940819C010E8C02C0220F331F49
:100B70000A94E2F7422B4083EE89FF8920810F8C93
:100B800002C0880F991F0A94E2F780958223808320
:100B9000DF91CF91FF90EF90DF90CF900895CF93AA
:100BA00010929A031092990388EE93E0A0E0B0E0CF
:100BB00080939B0390939C03A0939D03B0939E030B
:100BC0002AEB32E0309398032093970345E955E0F0
:100BD0005093A4034093A30341E555E05093A6032B
:100BE0004093A50345EC50E05093A8034093A7031E
:100BF00044EC50E05093AA034093A90340EC50E02A
:100C00005093AC034093AB0341EC50E05093AE03E0
:100C10004093AD0342EC50E05093B0034093AF03D8
:100C200046EC50E05093B2034093B103C4E0C0934C
:100C3000B303F3E0F093B403E7E0E093B50375E0AA
:100C40007093B60361E06093B7031092780310923B
:100C500077038093790390937A03A0937B03B093F7
:100C60007C0330937603209375034DE055E0509359
:100C700082034093810349EC54E0509384034093F2
:100C800083034DEC50E050938603409385034CEC76
:100C900050E0509388034093870348EC50E0509312
:100CA0008A034093890349EC50E050938C034093AE
:100CB0008B034AEC50E050938E0340938D034EEC2F
:100CC00050E05093900340938F03C0939103F093AF
:100CD0009203E093930370939403609395031092AF
:100CE0005603109255038093570390935803A09393
:100CF0005903B0935A03309354032093530345E8A8
:100D000054E05093600340935F0341E454E05093F8
:100D100062034093610345ED50E0509364034093B8
:100D2000630344ED50E0509366034093650340ED48
:100D300050E0509368034093670341ED50E05093B7
:100D40006A034093690342ED50E050936C03409373
:100D50006B0346ED50E050936E0340936D03C093D8
:100D60006F03F0937003E0937103709372036093C9
:100D700073031092340310923303809335039093DE
:100D80003603A0933703B093380330933203209394
:100D900031038DEF93E090933E0380933D0389EB05
:100DA00093E09093400380933F0385E391E0909319
:100DB00042038093410384E391E090934403809342
:100DC000430380E391E0909346038093450381E3DE
:100DD00091E0909348038093470382E391E09093DE
:100DE0004A038093490386E391E090934C038093F8
:100DF0004B03C0934D03F0934E03E0934F03709366
:100E0000500360935103CF9108950E944F020E94B6
:100E1000C100C1E3D4E00E942B012097E1F30E94BE
:100E20003104F9CFCF92DF92EF92FF920F931F938D
:100E3000CF93DF936C017A01EB01E60EF71E00E021
:100E400010E0CE15DF0561F06991D601ED91FC91BE
:100E50000190F081E02DC6011995080F191FF1CFFF
:100E6000C801DF91CF911F910F91FF90EF90DF901C
:100E7000CF9008956115710581F0DB010D90002080
:100E8000E9F7AD0141505109461B570BDC01ED91CB
:100E9000FC910280F381E02D199480E090E00895A8
:100EA0000C943A07DC01ED91FC910190F081E02D6A
:100EB00019940F931F93CF93DF93EC016DE00E9481
:100EC00052078C016AE0CE010E945207800F911FE9
:100ED000DF91CF911F910F9108950F931F93CF939F
:100EE000DF93EC010E943A078C01CE010E94590762
:100EF000800F911FDF91CF911F910F9108958F92D5
:100F00009F92AF92BF92CF92DF92EF92FF920F9398
:100F10001F93CF93DF93CDB7DEB7A1970FB6F894A9
:100F2000DEBF0FBECDBF7C01C42EE52FCB01D22E7C
:100F300019A221E02D1510F02AE0D22E8E010F5DAE
:100F40001F4F8D2C912CA12CB12C6C2D7E2FA50127
:100F500094010E949B0B8C2DD29E8019112401506C
:100F600011098A3014F4805D01C0895CF801808326
:100F7000211531054105510521F0C22EE32FCA018B
:100F8000E4CFB801C7010E943A07A1960FB6F894C2
:100F9000DEBF0FBECDBFDF91CF911F910F91FF90AC
:100FA000EF90DF90CF90BF90AF909F908F9008957B
:100FB0002115310541F4DC01ED91FC910190F081A6
:100FC000E02D642F19940C947F079A01462F50E06E
:100FD00060E070E00C94D8070F931F93CF93DF93DA
:100FE000EC010E94D8078C01CE010E945907800FA6
:100FF000911FDF91CF911F910F910895815B9F4FBA
:10100000FC01718360830895CF93DF93EC01C15B92
:10101000DF4F88819981DC01ED91FC910190F08195
:10102000E02D199588819981DC01ED91FC91028078
:10103000F381E02DDF91CF911994CF92DF92EF925F
:10104000FF920F93CF93DF93EC0182E08F876E01C5
:101050002FE4C20ED11CD6018D919C917E01BFE080
:10106000EB0EF11CDC01ED91FC910480F581E02D8B
:1010700000E020E030E041E0B7011995882321F03D
:1010800060E070E0CB0127C0F60180819181DC0136
:10109000ED91FC910680F781E02D28EE33E040E4ED
:1010A000B701199597FDECCF6F85862F90E0A0E0F2
:1010B000B0E0BA2FA92F982F88272889822BBA2F22
:1010C000A92F982F88272989822B6627782F892F87
:1010D0009A2F2A89622BDF91CF910F91FF90EF9089
:1010E000DF90CF900895EF92FF920F93CF93DF930D
:1010F000FC0194E1978781E0808B918B828B7F014B
:101100008FE4E80EF11CD7018D919C91EF012F9691
:10111000DC01ED91FC910480F581E02D00E020E000
:1011200030E044E0BE011995811112C0F7018081C1
:101130009181DC01ED91FC910680F781E02D28EE94
:1011400033E040E4BE01199521E0181619060CF0B1
:1011500020E0822FDF91CF910F91FF90EF900895C3
:10116000EF92FF920F93CF93DF93FC0182E3878787
:1011700085E0808B8FEF818B81E0828B638B7F0199
:101180008FE4E80EF11CD7018D919C91EF012F9611
:10119000DC01ED91FC910480F581E02D00E020E080
:1011A00030E045E0BE011995811112C0F701808140
:1011B0009181DC01ED91FC910680F781E02D28EE14
:1011C00033E040E4BE01199521E0181619060CF031
:1011D00020E0822FDF91CF910F91FF90EF90089543
:1011E0006F927F928F929F92AF92BF92CF92DF9237
:1011F000EF92FF920F931F93CF93DF93EC015A016D
:10120000490138018AE48F8781E0888B698B6E0100
:101210002FE4C20ED11CD6018D919C917E01BFE0BE
:10122000EB0EF11CDC01ED91FC910480F581E02DC9
:1012300000E020E030E043E0B7011995882311F089
:1012400080E026C0F60180819181DC01ED91FC9166
:101250000680F781E02D930140E4B701199597FDD1
:10126000EFCF8F85813061F78C89F401808320E096
:101270008C89281760F4822F90E0FE01E80FF91F97
:101280003589F501E80FF91F30832F5FF1CF81E039
:10129000DF91CF911F910F91FF90EF90DF90CF9052
:1012A000BF90AF909F908F907F906F90089540E097
:1012B00052EC61E070E0FC01828193810C944E0558
:1012C000DC01ED91FC910190F081E02D1994CF9318
:1012D000DF93EC0165E570E08A819B810E946009E3
:1012E00065E570E08A819B810E94600960E070E0A2
:1012F0008A819B810E94600960E070E08A819B8105
:101300000E94600960E070E08A819B810E94600910
:101310008A819B81DC01ED91FC910480F581E02DB7
:1013200019958A819B81DC01ED91FC910480F58106
:10133000E02D1995892B49F08A819B81DC01ED9183
:10134000FC910680F781E02DEBCFDF91CF910895DE
:10135000FC018AEC92E09183808373836283148220
:1013600008952F923F924F925F926F927F928F9249
:101370009F92AF92BF92CF92DF92EF92FF920F9324
:101380001F93CF93DF934C011A0159018B01C0E0E9
:10139000D0E06901E12CF12CC215D3050CF50E94B7
:1013A000FA012B013C01D40112968D919C91139767
:1013B000DC01ED91FC910680F781E02D199597FFF6
:1013C00015C0A114B10479F30E94FA0164197509DA
:1013D000860997096C157D058E059F0520F302C0CF
:1013E0008C2F09C02097E1F78EEF05C0F80181939B
:1013F0008F012196D1CFDF91CF911F910F91FF9057
:10140000EF90DF90CF90BF90AF909F908F907F90A4
:101410006F905F904F903F902F900895AF92BF9242
:10142000CF92DF92EF92FF920F931F93CF93DF93B0
:1014300000D01F921F92CDB7DEB78C01C62EB72EFB
:10144000D42E790143E050E0BE016F5F7F4F0E94D0
:10145000B10918161CF08EEF9FEF6DC089818823AB
:1014600019F08DEF9FEF67C08A818111FACF8B81D0
:101470008F3FB9F7970142E050E0BE016C5F7F4FAC
:10148000C8010E94B109181634F79C818D81890F1B
:1014900041F78EEF890F8C83D81608F44AC0F80103
:1014A000D480AA24A394AD0C970142E050E0BE0181
:1014B0006F5F7F4FC8010E94B109181664F68981D9
:1014C000853D79F68A81A812CCCF4C8150E09701F6
:1014D0006C2D7B2DC8010E94B1094C81992787FD95
:1014E0009095242F30E08217930709F0B4CFF6EDE2
:1014F000DF0E9C2DEC2DFB2D8E2F891B841718F4ED
:101500008191D80EF9CF970142E050E0BE016F5FA4
:101510007F4FC8010E94B10918160CF09CCF898139
:101520008D0D09F09ECF8A8181119BCF8C8190E037
:1015300002C08CEF9FEF0F900F900F900F900F90C5
:10154000DF91CF911F910F91FF90EF90DF90CF909F
:10155000BF90AF900895CF93DF93CDB7DEB72C97B0
:101560000FB6F894DEBF0FBECDBF26E0E6E0F2E096
:10157000DE01179601900D922A95E1F72AE030E0FE
:1015800046E050E0BE016F5F7F4F0E94B109181620
:1015900084F446E050E0BE01695F7F4FCE010196C2
:1015A0000E948E0B21E0892B09F420E0822F819587
:1015B00001C08EEF2C960FB6F894DEBF0FBECDBFE4
:1015C000DF91CF910895BF92CF92DF92EF92FF9279
:1015D0000F931F93CF93DF93EC017B01C42E122F47
:1015E000D32E8A819B81DC01ED91FC910480F581F1
:1015F000E02D19958A819B81DC01ED91FC9104809D
:10160000F581E02D1995AA81BB81892B41F0ED91DF
:10161000FC9111970680F781E02DCD01EACFF7010B
:1016200080818C8360E070E0CD010E94600960E001
:1016300070E08A819B810E9460096FEF70E08A816F
:101640009B810E946009BB24B394B00EBC0C8A81BC
:101650009B81DC01ED91FC910190F081E02D6B2DDF
:1016600019956B2D70E07195619571098A819B8147
:101670000E94600964ED70E08A819B810E9460098C
:101680008A819B81DC01ED91FC914C2D50E0028020
:10169000F381E02DB70119959E2DF70184EDF82E09
:1016A0008E2F891B8C1518F48191F80EF9CF8A8141
:1016B0009B81DC01ED91FC91402F50E00280F38191
:1016C000E02D612F7D2D1995912FE12FFD2D8E2F6E
:1016D000891B801718F48191F80EF9CF8A819B81BC
:1016E000DC01ED91FC916F2D61950190F081E02D71
:1016F000199560E070E08A819B810E946009CE01AB
:10170000DF91CF911F910F91FF90EF90DF90CF90DD
:10171000BF900C94AB0AF8940C94C10BFB01DC0154
:1017200004C08D910190801921F441505040C8F7B8
:10173000881B990B0895A1E21A2EAA1BBB1BFD0161
:101740000DC0AA1FBB1FEE1FFF1FA217B307E407A0
:10175000F50720F0A21BB30BE40BF50B661F771FF8
:10176000881F991F1A9469F76095709580959095D8
:101770009B01AC01BD01CF0108950790F691E02DCA
:061780001994F894FFCF5C
:101786000000D90520000000FF00FF0048656C6CD2
:101796006F21004469646E27742066696E64205068
:1017A6004E35337820626F61726400466F756E64E1
:1017B600206368697020504E35004669726D776106
:1017C6007265207665722E200057616974696E67AE
:1017D60020666F7220616E2049534F3134343433A2
:1017E60041206361726400466F756E6420612063F8
:1017F6006172642100554944204C656E6774683AED
:101806002000206279746573005549442056616C46
:1018160075653A20002030780054696D6564206F44
:1018260075742077616974696E6720666F722061CE
:10183600206361726400000000000B031207B1020E
:10184600DE02C30200030000000057096709E30A2D
:021856000E0A78
:00000001FF
