:100000000C9407010C9436010C9436010C943601C3
:100010000C9436010C9436010C9436010C94360184
:100020000C9436010C9436010C9436010C94360174
:100030000C9436010C9436010C9436010C94360164
:100040000C9436010C9436010C9436010C94360154
:100050000C9436010C9436010C9436010C94D8069D
:100060000C9436010C94D3020C94C3030C94360107
:100070000C9436010C9436010C9436010C94360124
:100080000C9436010C9436010C9436010C94360114
:100090000C9407030C9402040C9436010C94360162
:1000A0000C9436010C9436010C9436010C943601F4
:1000B0000C9436010C9436010C9436010C943601E4
:1000C0000C9436010C9436010C9436010C943B03CD
:1000D0000C9441040C9436010C946F030C9480042E
:1000E0000C94360178017B016E017201B2017F012F
:1000F000830189018D01910197019B019F01B2014B
:10010000A501A901AD010000090A02080B0C0D07A9
:1001100006030401000000000000000000000000D1
:1001200000000000000000000000000000000000CF
:10013000000011100F00000000000000000000008F
:10014000000000000000000000000000010210207C
:1001500020080810204010204080020102010804FD
:100160000201010204081020408080402010080491
:1001700002018004020180402010080402010804EA
:10018000020101020408102040800102040810202E
:100190004080050505050705080808080202020257
:1001A0000A0A080804040404010101010101010113
:1001B0000303030303030303040707070C0C0C0CDE
:1001C0000C0C0C0C020202020606060606060606C7
:1001D0000B0B0B0B0B0B0B0B000022002500280058
:1001E0002B002E003100340002010000050108013F
:1001F0000B0100002100240027002A002D00300000
:10020000330001010000040107010A014005112427
:100210001FBECFEFD1E2DEBFCDBF12E0A0E0B2E063
:10022000EAE6FFE000E00BBF02C007900D92A631A6
:10023000B107D9F714E0A6E1B2E001C01D92A73CD6
:10024000B107E1F712E0CEE0D2E000E006C022976D
:100250000109FE010BBF0E94AF07CC30D10780E03F
:100260000807A9F70E9476060C9484070C940000F6
:1002700040E855E260E070E08CE792E00E94BF0445
:1002800061E08DE00C94B301CF938CE792E00E9483
:100290002202892BB1F08CE792E00E944F02C82F16
:1002A0008F7D883411F461E003C08C3451F460E038
:1002B0008DE00E94EC016C2F8CE792E0CF910C94C2
:1002C000C606CF91089590E0FC013197E131F10528
:1002D00008F048C0EE58FF4F0C94A90780918000A9
:1002E0008F7703C0809180008F7D80938000089578
:1002F00084B58F7702C084B58F7D84BD08958091C9
:10030000B0008F7703C08091B0008F7D8093B000E4
:100310000895809190008F7707C0809190008F7D25
:1003200003C080919000877F809390000895809112
:10033000A0008F7707C08091A0008F7D03C08091BF
:10034000A000877F8093A0000895809120018F777F
:1003500007C0809120018F7D03C080912001877F9D
:10036000809320010895CF93DF9390E0FC01E45B3C
:10037000FE4F2491FC01EE56FE4F8491882349F1F3
:1003800090E0880F991FFC01EE50FE4FA591B491AB
:1003900088529E4FFC01C591D4919FB7611108C04E
:1003A000F8948C91209582238C93888182230AC0B3
:1003B000623051F4F8948C91322F309583238C93D2
:1003C0008881822B888304C0F8948C91822B8C9333
:1003D0009FBFDF91CF9108950F931F93CF93DF932A
:1003E0001F92CDB7DEB7282F30E0F901EA5FFE4F4C
:1003F0008491F901E45BFE4F1491F901EE56FE4F32
:1004000004910023C9F0882321F069830E946301CD
:100410006981E02FF0E0EE0FFF1FE852FE4FA5913B
:10042000B4919FB7F8948C91611103C0109581230A
:1004300001C0812B8C939FBF0F90DF91CF911F91B3
:100440000F910895FC0124853585F901E05CFF4F8B
:1004500080819181F901EE5BFF4F20813181821B08
:10046000930B8F7399270895FC0184859585FC0172
:10047000E05CFF4F40815181FC01EE5BFF4F20812A
:1004800031814217530741F00190F081E02DE80FD0
:10049000F91F808190E008958FEF9FEF0895FC0190
:1004A00084859585FC01E05CFF4F40815181FC0112
:1004B000EE5BFF4F208131814217530779F0A08115
:1004C000B181A80FB91F8C91208131812F5F3F4FDF
:1004D0002F7333273183208390E008958FEF9FEFB0
:1004E0000895FC0181A1882329F0A489B5898C9104
:1004F00086FFFBCF11A20895CF93DF93FC012685E1
:100500003785D901A05CBF4F8D919C9111970196C1
:100510008F739927E901CE5BDF4F4881598184179A
:100520009507D9F30D90BC91A02DA20FB31F6C932A
:10053000A685B785A05CBF4F11969C938E93A68924
:10054000B7892C9181E090E0078C02C0880F991F39
:100550000A94E2F7282B2C9381E081A30488F58983
:10056000E02D80818064808381E090E0DF91CF91F5
:100570000895FB01E05CFF4F208131812F5F3F4FE9
:100580002F733327DB01AE5BBF4F4D915C91241776
:10059000350739F0A081B181A60FB71F8C93318345
:1005A0002083089508951F920F920FB60F92112481
:1005B0000BB60F922F933F934F935F936F937F935D
:1005C0008F939F93AF93BF93EF93FF938091C0005E
:1005D00082FD07C08091C6006AE774E00E94B902FC
:1005E00002C08091C600FF91EF91BF91AF919F91A2
:1005F0008F917F916F915F914F913F912F910F90CC
:100600000BBE0F900FBE0F901F90189508951F926C
:100610000F920FB60F9211240BB60F922F933F93A8
:100620004F935F936F937F938F939F93AF93BF93FA
:10063000EF93FF938091C80082FD07C08091CE00A8
:1006400062EF73E00E94B90202C08091CE00FF9178
:10065000EF91BF91AF919F918F917F916F915F913A
:100660004F913F912F910F900BBE0F900FBE0F90A7
:100670001F90189508951F920F920FB60F92112494
:100680000BB60F922F933F934F935F936F937F938C
:100690008F939F93AF93BF93EF93FF938091D0007D
:1006A00082FD07C08091D6006AE673E00E94B9021D
:1006B00002C08091D600FF91EF91BF91AF919F91C1
:1006C0008F917F916F915F914F913F912F910F90FB
:1006D0000BBE0F900FBE0F901F90189508951F929C
:1006E0000F920FB60F9211240BB60F922F933F93D8
:1006F0004F935F936F937F938F939F93AF93BF932A
:10070000EF93FF938091300182FD07C08091360105
:1007100062EE72E00E94B90202C080913601FF9140
:10072000EF91BF91AF919F918F917F916F915F9169
:100730004F913F912F910F900BBE0F900FBE0F90D6
:100740001F9018958CE792E00E942202892B11F0ED
:100750000E94D2028AE592E00E942202892B11F0C7
:100760000E94060388E392E00E942202892B11F086
:100770000E943A0386E192E00E942202892B11F046
:100780000C946E0308951F920F920FB60F921124CE
:100790000BB60F922F933F938F939F93EF93FF93FB
:1007A00020917604309177048091780490917904B7
:1007B0002817390731F48091C1008F7D8093C100E3
:1007C00014C0E0917804F0917904EA5CFB4F208139
:1007D000809178049091790401968F739927909372
:1007E0007904809378042093C600FF91EF919F9144
:1007F0008F913F912F910F900BBE0F900FBE0F90D6
:100800001F9018951F920F920FB60F9211240BB6DE
:100810000F922F933F938F939F93EF93FF9320918A
:10082000EE033091EF038091F0039091F1032817CC
:10083000390731F48091C9008F7D8093C90014C0BD
:10084000E091F003F091F103E255FC4F208180919B
:10085000F0039091F10301968F7399279093F10320
:100860008093F0032093CE00FF91EF919F918F91A1
:100870003F912F910F900BBE0F900FBE0F901F90C6
:1008800018951F920F920FB60F9211240BB60F926C
:100890002F933F938F939F93EF93FF932091660342
:1008A0003091670380916803909169032817390795
:1008B00031F48091D1008F7D8093D10014C0E091FC
:1008C0006803F0916903EA5DFC4F20818091680321
:1008D0009091690301968F73992790936903809390
:1008E00068032093D600FF91EF919F918F913F91E4
:1008F0002F910F900BBE0F900FBE0F901F90189569
:100900001F920F920FB60F9211240BB60F922F93D6
:100910003F938F939F93EF93FF932091DE0230914B
:10092000DF028091E0029091E1022817390731F44B
:10093000809131018F7D8093310114C0E091E002FC
:10094000F091E102E256FD4F20818091E00290910A
:10095000E10201968F7399279093E1028093E00260
:1009600020933601FF91EF919F918F913F912F91AD
:100970000F900BBE0F900FBE0F901F901895CF9247
:10098000DF92EF92FF92CF93DF93EC016A017B013C
:10099000411581EE580761057105F9F0EC89FD8973
:1009A00081E090E008A002C0880F991F0A94E2F746
:1009B000808360E079E08DE390E0A70196010E94DA
:1009C00087072150310941095109569547953795B7
:1009D0002795211580E1380798F0EC89FD89108270
:1009E00060E874E88EE190E0A70196010E94870715
:1009F0002150310941095109569547953795279559
:100A0000E889F9893083EA89FB89208319A2EE8974
:100A1000FF89408181E090E09C010C8C02C0220F94
:100A2000331F0A94E2F7422B4083EE89FF8940810D
:100A30009C010D8C02C0220F331F0A94E2F7422B57
:100A40004083EE89FF8940819C010E8C02C0220FF9
:100A5000331F0A94E2F7422B4083EE89FF892081FD
:100A60000F8C02C0880F991F0A94E2F780958223A9
:100A70008083DF91CF91FF90EF90DF90CF9008952A
:100A8000CF9310927F0210927E0288EE93E0A0E056
:100A9000B0E08093800290938102A0938202B09391
:100AA00083022AE032E030937D0220937C024AE701
:100AB00054E0509389024093880246E354E05093F7
:100AC0008B0240938A0245EC50E050938D02409394
:100AD0008C0244EC50E050938F0240938E0240EC25
:100AE00050E0509391024093900241EC50E05093BB
:100AF00093024093920242EC50E05093950240934F
:100B0000940246EC50E05093970240939602C4E062
:100B1000C0939802F3E0F0939902E7E0E0939A0221
:100B200075E070939B0261E060939C0210925D02FD
:100B300010925C0280935E0290935F02A093600229
:100B4000B093610230935B0220935A0242EF53E06C
:100B500050936702409366024EEA53E05093690255
:100B6000409368024DEC50E050936B0240936A0250
:100B70004CEC50E050936D0240936C0248EC50E016
:100B800050936F0240936E0249EC50E05093710213
:100B9000409370024AEC50E050937302409372020B
:100BA0004EEC50E05093750240937402C09376026D
:100BB000F0937702E09378027093790260937A025F
:100BC00010923B0210923A0280933C0290933D02B5
:100BD000A0933E02B0933F02309339022093380233
:100BE0004AE653E0509345024093440246E253E004
:100BF000509347024093460245ED50E0509349021E
:100C00004093480244ED50E050934B0240934A0217
:100C100040ED50E050934D0240934C0241ED50E0C6
:100C200050934F0240934E0242ED50E050935102D8
:100C30004093500246ED50E05093530240935202CD
:100C4000C0935402F0935502E093560270935702FA
:100C500060935802109219021092180280931A029F
:100C600090931B02A0931C02B0931D0230931702B5
:100C70002093160282EE92E0909323028093220248
:100C80008EE992E0909325028093240285E391E01F
:100C9000909327028093260284E391E090932902A7
:100CA0008093280280E391E090932B0280932A02A4
:100CB00081E391E090932D0280932C0282E391E0F6
:100CC00090932F0280932E0286E391E0909331025D
:100CD00080933002C0933202F0933302E0933402E7
:100CE0007093350260933602CF9108950E942207D7
:100CF0000E943801C2EAD3E00E9444012097E1F348
:100D00000E94A203F9CFCF92DF92EF92FF920F934E
:100D10001F93CF93DF936C017A01EB01E60EF71E70
:100D200000E010E0CE15DF0561F06991D601ED918C
:100D3000FC910190F081E02DC6010995080F191F63
:100D4000F1CFC801DF91CF911F910F91FF90EF90EC
:100D5000DF90CF900895DC01ED91FC910190F0813E
:100D6000E02D09940F931F93CF93DF93EC016DE077
:100D70000E94AB068C016AE0CE010E94AB06800F98
:100D8000911FDF91CF911F910F9108950F931F93A2
:100D9000CF93DF93EC010E94AB068C01CE010E9441
:100DA000B206800F911FDF91CF911F910F9108958F
:100DB0001F920F920FB60F9211242F933F938F9390
:100DC0009F93AF93BF938091BF049091C004A09173
:100DD000C104B091C2043091BE0423E0230F2D372B
:100DE00020F40196A11DB11D05C026E8230F02962F
:100DF000A11DB11D2093BE048093BF049093C00435
:100E0000A093C104B093C2048091C3049091C40420
:100E1000A091C504B091C6040196A11DB11D809397
:100E2000C3049093C404A093C504B093C604BF91B7
:100E3000AF919F918F913F912F910F900FBE0F9087
:100E40001F901895789484B5826084BD84B58160C4
:100E500084BD85B5826085BD85B5816085BDEEE6C2
:100E6000F0E0808181608083E1E8F0E010828081A1
:100E700082608083808181608083E0E8F0E080810F
:100E800081608083E1EBF0E0808184608083E0EB2F
:100E9000F0E0808181608083E1E9F0E08081826020
:100EA0008083808181608083E0E9F0E080818160DF
:100EB0008083E1EAF0E080818260808380818160CC
:100EC0008083E0EAF0E0808181608083E1E2F1E00C
:100ED000808182608083808181608083E0E2F1E0B4
:100EE000808181608083EAE7F0E080818460808394
:100EF000808182608083808181608083808180683E
:100F000080831092C1000895F8940C94B307A1E275
:100F10001A2EAA1BBB1BFD010DC0AA1FBB1FEE1F73
:100F2000FF1FA217B307E407F50720F0A21BB30BBE
:100F3000E40BF50B661F771F881F991F1A9469F73A
:100F400060957095809590959B01AC01BD01CF0196
:100F50000895EE0FFF1F0590F491E02D099407907E
:0A0F6000F691E02D0994F894FFCFFC
:100F6A000000C7042000000000007C028306220261
:060F7A004F023402710277
:00000001FF
